:02000002B0004C
:1040000000400B004E580B00000006000C0005029B
:084010000401B41400000000DB
:0440180068550B00DC
:10401C0081F0004102E000BF83F0004330B54FEA6D
:10402C0041044FEA430594EA050F08BF90EA020FDA
:10403C001FBF54EA000C55EA020C7FEA645C7FEA6D
:10404C00655C00F0E2804FEA5454D4EB5555B8BF90
:10405C006D420CDD2C4480EA020281EA030382EA01
:10406C00000083EA010180EA020281EA0303362D93
:10407C0088BF30BD11F0004F4FEA01314FF4801C66
:10408C004CEA113102D0404261EB410113F0004F78
:10409C004FEA03334CEA133302D0524263EB43032F
:1040AC0094EA050F00F0A780A4F10104D5F1200ECD
:1040BC000DDB02FA0EFC22FA05F2801841F1000128
:1040CC0003FA0EF2801843FA05F359410EE0A5F1FC
:1040DC0020050EF1200E012A03FA0EFC28BF4CF02D
:1040EC00020C43FA05F3C01851EBE37101F00045E3
:1040FC0007D54FF0000EDCF1000C7EEB00006EEBF0
:10410C000101B1F5801F1BD3B1F5001F0CD3490879
:10411C005FEA30004FEA3C0C04F101044FEA4452D0
:10412C0012F5800F80F09A80BCF1004F08BF5FEA57
:10413C00500C50F1000041EB045141EA050130BD37
:10414C005FEA4C0C404141EB0101013C28BFB1F549
:10415C00801FE9D291F0000F04BF01460020B1FA94
:10416C0081F308BF2033A3F10B03B3F120020CDA67
:10417C000C3208DD02F1140CC2F10C0201FA0CF045
:10418C0021FA02F10CE002F11402D8BFC2F1200CAA
:10419C0001FA02F120FA0CFCDCBF41EA0C01904060
:1041AC00E41AA2BF01EB0451294330BD6FEA0404A9
:1041BC001F3C1CDA0C340EDC04F11404C4F1200294
:1041CC0020FA04F001FA02F340EA030021FA04F3A6
:1041DC0045EA030130BDC4F10C04C4F1200220FAFD
:1041EC0002F001FA04F340EA0300294630BD21FA3B
:1041FC0004F0294630BD94F0000F83F4801306BF01
:10420C0081F480110134013D4EE77FEA645C18BFF4
:10421C007FEA655C29D094EA050F08BF90EA020F8B
:10422C0005D054EA000C04BF1946104630BD91EA83
:10423C00030F1EBF0021002030BD5FEA545C05D186
:10424C004000494128BF41F0004130BD14F58004C5
:10425C003CBF01F5801130BD01F0004545F0FE4139
:10426C0041F470014FF0000030BD7FEA645C1ABF6E
:10427C00194610467FEA655C1CBF0B46024650EAA5
:10428C00013406BF52EA033591EA030F41F40021D1
:10429C0030BD00BF90F0000F04BF0021704730B557
:1042AC004FF4806404F132044FF000054FF000012C
:1042BC0050E700BF90F0000F04BF0021704730B5ED
:1042CC004FF4806404F1320410F0004548BF4042C2
:1042DC004FF000013EE700BF42004FEAE2014FEA17
:1042EC0031014FEA02701FBF12F07F4393F07F4FF2
:1042FC0081F06051704732F07F4208BF704793F0F5
:10430C007F4F04BF41F40021704730B54FF4607407
:10431C0001F0004521F000411CE700BF50EA01020A
:10432C0008BF704730B54FF000050AE050EA0102B3
:10433C0008BF704730B511F0004502D5404261EB23
:10434C0041014FF4806404F132045FEA915C3FF464
:10435C00D8AE4FF003025FEADC0C18BF03325FEA01
:10436C00DC0C18BF033202EBDC02C2F1200300FAB2
:10437C0003FC20FA02F001FA03FE40EA0E0021FAD7
:10438C0002F11444BDE600BF4FEA410212F50012DF
:10439C0015D211D56FF47873B3EB625212D94FEA80
:1043AC00C12343F0004343EA505311F0004F23FA6A
:1043BC0002F018BF404270474FF00000704750EABF
:1043CC00013005D111F0004008BF6FF0004070477C
:1043DC004FF00000704700BF034613F8012B002A72
:1043EC00FBD1181A0138704709480A49884208B5A8
:1043FC0005D0094A824202D0121A01F005F807488A
:10440C00074A0021121A01F00DF8014808BD00BF3F
:10441C0030E60320B4570B009CE603209CE60320F7
:10442C00F0E7032070B5074E074C00F07BFEA41B91
:10443C00A4080025AC4200D170BD56F8043B984747
:10444C000135F7E76C570B0090570B0000F028B8BC
:10445C0008B500F04FF8BDE8084000F01BBE00F0B6
:10446C0075BA00F07BBA0078B0FA80F0400970475A
:10447C00012303707047000010B50446FFF71AFFC4
:10448C00002C064B4FF0000204DBFFF7C7FDFFF7D3
:10449C007BFF10BDFFF7C0FDF9E700BF0000E03F58
:1044AC0008B500210E2000F0ADFE0021084600F0FA
:1044BC00A9FE0121042000F0A5FE0121052000F039
:1044CC00A1FE0121062000F09DFE0121042000F038
:1044DC00AAFE0121052000F0A6FE0121062000F015
:1044EC00A2FE00F051FDBDE808404FF4165100F05B
:1044FC003FBD000070B5284D284C2B680E2063BBC7
:10450C0000F0BDFE40F6FF73C0EB002090FBF3F013
:10451C00FFF7B2FF01462060042000F0C7FE002028
:10452C0000F09AFE0128044610D11D4E33786BB969
:10453C0000F02AFD1B4900F022FC1B4A3470137852
:10454C0083F0010313702B6801332B60002000F003
:10455C0083FE08B9124B187070BD012B0DD100F001
:10456C008EFE40F6FF73C0EB002090FBF3F0FFF7DC
:10457C0083FF014620600520CFE700F080FE40F667
:10458C00FF73C0EB002090FBF3F0FFF775FF0146C3
:10459C0020600620C1E700BFACE60320B4E6032090
:1045AC00A8E603207C550B00B0E6032010B5074BA2
:1045BC00074A9A600024C3E90044032000F03AF94A
:1045CC0021460120BDE8104000F03CB99CE60320D8
:1045DC000000FFFF08B5024B1B685B6C019308BD24
:1045EC004802030008B5024B1B685B68019308BDC9
:1045FC001802030008B5024B1B685B69019308BDE8
:10460C001802030008B5024B1B685B68019308BDD8
:10461C002C02030008B5024B1B689B68019308BD74
:10462C002C02030008B5024B1B68DB68019308BD24
:10463C002C02030008B5024B1B681B69019308BDD3
:10464C002C02030008B5024B1B685B69019308BD83
:10465C002C02030008B5024B1B689B6A019308BD32
:10466C002C02030008B5024B1B681B6B019308BDA1
:10467C002C02030008B5024B1B689B6F019308BD0D
:10468C002C02030008B5024B1B681B6A019308BD82
:10469C002802030008B5024B1B685B6A019308BD36
:1046AC002802030008B5024B1B689B6A019308BDE6
:1046BC002802030008B5024B1B68DB6A019308BD96
:1046CC002802030008B5024B1B681B6B019308BD45
:1046DC002802030008B5024B1B685B6B019308BDF5
:1046EC002802030008B5024B1B681B6C019308BD24
:1046FC002802030008B5024B1B685B69019308BDD7
:10470C006402030008B5024B1B689B68019308BD4B
:10471C006802030008B5024B1B68DB68019308BDF7
:10472C006802030008B5024B1B68DB69019308BDE6
:10473C003002030008B5024B1B681B6A019308BDCD
:10474C003002030008B5024B1B68DB68019308BDFF
:10475C003C02030008B5024B1B681B69019308BDA2
:10476C003C02030008B5024B1B685B69019308BD52
:10477C003C02030008B5024B1B689B69019308BD02
:10478C003C02030008B5024B1B68DB69019308BDB2
:10479C003C02030008B5024B1B681B6A019308BD61
:1047AC003C02030008B5024B1B689B6A019308BDD1
:1047BC003C02030008B5024B1B681B6C019308BD3F
:1047CC003C02030008B5024B1B681B68019308BD33
:1047DC004C02030008B5024B1B685B68019308BDD3
:1047EC004C02030008B5024B1B681B69019308BD02
:1047FC004C02030008B5024B1B685B69019308BDB2
:10480C004C02030008B5024B1B689B69019308BD61
:10481C004C02030008B5024B1B68DB69019308BD11
:10482C004C02030008B5024B1B681B6A019308BDC0
:10483C004C02030008B5024B1B685B68019308BD72
:10484C002002030008B5024B1B68DB6A019308BD0C
:10485C002002030008B5034B1B68D3F88830019382
:10486C0008BD00002002030008B5034B1B68D3F8F9
:10487C009430019308BD00002002030008B5024BE0
:10488C001B68DB6B019308BD4402030008B5024BA7
:10489C001B685B68019308BD4002030008B5024B1E
:1048AC001B689B68019308BD4002030008B5024BCE
:1048BC001B68DB68019308BD4002030008B5024B7E
:1048CC001B681B69019308BD4002030008B5024B2D
:1048DC001B685B69019308BD4002030008B5024BDD
:1048EC001B689B69019308BD4002030008B5024B8D
:1048FC001B68DB69019308BD4002030008B5024B3D
:10490C001B681B6A019308BD4002030008B5024BEB
:10491C001B681B6B019308BD4002030008B5024BDA
:10492C001B685B6B019308BD4002030008B5024B8A
:10493C001B681B6C019308BD4002030008B5024BB9
:10494C001B685B6C019308BD4002030008B5024B69
:10495C001B681B68019308BD1C02030008B5024BC1
:10496C001B685B68019308BD1C02030008B5024B71
:10497C001B681B6C019308BD1C02030008B5024B9D
:10498C001B685B6C019308BD1C02030002480023EA
:10499C000360FFF71FBE00BFB8E60320002240688B
:1049AC001146FFF7ABBF002240681146FFF7B6BFB8
:1049BC0040680022FFF7AABF4068002281F0010185
:1049CC00FFF794BF002340681A461946FFF786BFCD
:1049DC00002340681A461946FFF778BF002240684A
:1049EC001146FFF76BBF002240681146FFF756BF18
:1049FC00406800220221FFF759BF002340681A4685
:104A0C00FFF744BF024B03225A60024A1A607047F8
:104A1C00BCE6032090550B007047F8B506461546CA
:104A2C000C468F18BC4206D0336814F8011B9B68E7
:104A3C0030469847F6E72846F8BD007C0022FFF781
:104A4C0021BE007C0021FFF725BE007C0021FFF772
:104A5C0029BE007C0021FFF72DBE007C0021FFF752
:104A6C0031BE10B514210446FFF7FBFC204610BDE7
:104A7C0038B5044615464FF47A730022C4E9012375
:104A8C00094B2174084623602946FFF72BFEBF30E3
:104A9C0008D16B69DB0705D56868FFF75FFFE8682D
:104AAC00FFF75CFF204638BDCC550B00704710B5A6
:104ABC0018210446FFF7D5FC204610BDF0B5037D48
:104ACC00062B8DB00E4600F104074FF0000412D0F7
:104ADC0000F1080515F8011D0A22304600F059F9BD
:104AEC00AF42044419D0002CF4D02E21304600F0F3
:104AFC0037F90444EEE72F236A4639460A208DF82D
:104B0C000040FFF7F7FD6846FFF766FC3368024686
:104B1C00DB68694630469847044620460DB0F0BD28
:104B2C0010B5054B0446112240F8043B002100F05F
:104B3C0079FC204610BD00BFF4550B000346074A14
:104B4C0010B543F8042B01F1100251F8044B43F853
:104B5C00044B9142F9D10A781A7010BDF4550B0030
:104B6C0010B59DF8084044EA032343EA024242EAA6
:104B7C00016104234160037510BD000007B5064BAD
:104B8C000360CB7800938B784A780978FFF7E8FFBD
:104B9C0003B05DF804FB00BFF4550B00014B024A57
:104BAC001A607047C4E6032000560B0000234068CF
:104BBC001A46FFF76BBE406800220221FFF776BE53
:104BCC00002240681146FFF769BE0022406811467A
:104BDC00FFF774BE002340681A461946FFF776BEED
:104BEC00002340681A461946FFF778BE406800213A
:104BFC00FFF79CBE40680021FFF7A0BE4068002272
:104C0C0081F00101FFF772BE40680022FFF77EBE03
:104C1C00002240681146FFF781BE00224068114611
:104C2C00FFF76CBE2DE9F04395B014460D460746D0
:104C3C00FFF776FF00211C220DA8009100F0F2FB7B
:104C4C0040230C9320466B460CAA0021FFF762FD13
:104C5C00044600284BD1024601216868FFF72EFE5E
:104C6C000221804622466868FFF728FE009E814696
:104C7C002146002E3BD0002939D17368022B03D07A
:104C8C000A2B11D0F669F4E7B8F1000FFAD071696C
:104C9C0006A8043107ADFFF771FF0FCD3C1D0FC403
:104CAC002B6823704146EDE7B9F1000FEAD0746927
:104CBC00102201A800F0B6FB06238DF8143001ADCC
:104CCC0004F108031834186859682A4603C20833DB
:104CDC00A3421546F7D101A906A807ADFFF72EFF91
:104CEC000FCD3C1D0FC42B6823704946CAE70098B2
:104CFC00FFF708FD384615B0BDE8F083024B034AB8
:104D0C001A6000225A607047C8E603200C560B004C
:104D1C00F8B506460D468F180024BD420CD03368FA
:104D2C0015F8011B9B6830469847031E01DB1C4499
:104D3C00F3E7002C08BF1C462046F8BD13B504460B
:104D4C00084659B10191FFF747FB23680199DB68CD
:104D5C000246204602B0BDE81040184702B010BD14
:104D6C0003689B68184738B50D210546FFF7F8FF17
:104D7C000A2104462846FFF7F3FF204438BD38B516
:104D8C000546FFF7DBFF04462846FFF7ECFF2044FF
:104D9C0038BD30B58BB00023012A8DF8243098BF74
:104DAC000A2209AC0D46B1FBF2F101FB125303F0E0
:104DBC00FF03092B94BF30333733DBB2AA4204F81C
:104DCC00013DEFD92146FFF7B9FF0BB030BD000014
:104DDC00014B00229A607047D0E6032010B50446C0
:104DEC0008462170FFF79EFC00236360204610BD2F
:104DFC00054B02221A60054B054A9A600020C3E954
:104E0C000000FFF717BD00BFECE60320E0E603202F
:104E1C000000FFFF024B1A68024B1A60704700BF7C
:104E2C0030E60320F0E6032070474174704708B564
:104E3C00007CFFF7B7FC20EAE07008BD08B5007CE9
:104E4C00FFF788FC20EAE07008BD08B5007CFFF78E
:104E5C0091FC40EAE07008BD08B5007CFFF782FCCD
:104E6C0040EAE07008BD007CFFF78CBC37B5457C90
:104E7C0004462DB1207C03B0BDE83040FFF762BC86
:104E8C00007C0191FFF78EFC00280199F2DC28468A
:104E9C0003B030BD10B514210446FFF7E2FA2046EA
:104EAC0010BD000010B54FF47A7304460846114645
:104EBC000022C4E90123044B236001232074637492
:104ECC00FFF778FC204610BD64560B004174704708
:104EDC007047704708B50021007CFFF793FC40EA4F
:104EEC00E07008BD08B50121007CFFF78BFC40EA9F
:104EFC00E07008BD08B5007CFFF77CFC20EAE07090
:104F0C0008BD08B5007CFFF76DFC20EAE07008BD19
:104F1C0013B50446007C0191FFF76CFC0028019945
:104F2C0001DC607C20B1207CFFF774FC20EAE0708F
:104F3C0002B010BD007CFFF775BC10B514210446FF
:104F4C00FFF78FFA204610BD10B54FF47A73044664
:104F5C0008460021C4E90113044B2360012320748B
:104F6C0063741146FFF72EFC204610BD94560B00BF
:104F7C00007C0022FFF72EBC10B514220446002141
:104F8C0000F050FA204610BD10B50F4C88B003A8A5
:104F9C00FFF7F2FF2178BFF35B8F11F001010FD106
:104FAC0020460191FFF75FFA019948B103AA07481F
:104FBC00FFF7CAFF2046FFF75BFA054800F01EFA20
:104FCC00024808B010BD00BFF4E60320F8E6032049
:104FDC00DD4E0B00002240681146FFF76FBC00222B
:104FEC0040681146FFF78ABC002240681146FFF763
:104FFC0095BC40680022FFF789BC4068002281F014
:10500C000101FFF773BC002340681A461946FFF7ED
:10501C0065BC002340681A461946FFF757BC0022AE
:10502C0040681146FFF73ABC406800220221FFF7A6
:10503C003DBC002340681A46FFF728BC024B0422F3
:10504C005A60024A1A6070470CE70320C4560B00E2
:10505C00014B1860704700BF34E6032008B50B4BBA
:10506C0043B1FFF791FF03681B699847002801DDE6
:10507C00AFF30080064B43B100F09AF903681B694B
:10508C009847002801DDAFF3008008BD0000000048
:10509C000000000008B5FFF7E1FFFFF7ABFA014B8A
:1050AC00186008BD28E703200548064A064908B5DC
:1050BC00121A00F0A9F9054B054A1A6008BD00BF89
:1050CC0000F4032004F4032020580B0000F4032008
:1050DC001E1C279A07B5002300931A466FF0770120
:1050EC00FFF7C2FB03B05DF804FB000007B5438873
:1050FC000A2B08D0502B0BD1094B1B684BB103B0BA
:10510C005DF804EB1847FFF7E5FF03B05DF804FB0F
:10511C00002300931A466FF07701FFF7A5FBF4E725
:10512C0018E7032010B512480021FFF727FC114B9C
:10513C001A68114B9A42114B0CBF012200221A70B3
:10514C0001D0FFF7B1FFFFF74DFA044600F072F9FA
:10515C000B4B13B12046AFF3008000210848FFF73A
:10516C008DFBBDE8104007480021FFF773BB00BF63
:10517C005D500B0000F403201E1C279A14E703203B
:10518C0000000000F9500B00232813B502D90020B1
:10519C0002B010BDA0F10B03022B1AD8174C2178CA
:1051AC00BFF35B8F11F001010BD120460191FFF78A
:1051BC005AF9019928B11248FFF710FE2046FFF763
:1051CC0057F90F4B1878FFF7B5FA0028DFD10120FB
:1051DC00DEE7012809D800F0ABF80021007CFFF7CE
:1051EC0079FA80F00100C0B2D2E709380128EED874
:1051FC0000F0DEF8007CFFF7CDFAF2E71CE70320A5
:10520C0020E70320232838B504460D460AD8FF2989
:10521C0008D0FFF7B9FF28B129462046BDE8384031
:10522C00FFF7F8B938BD38B504460D46FFF7FAF963
:10523C00FF2810D0062804D84D2323FA00F0C3070A
:10524C0009D42046FFF7A0FF28B129462046BDE827
:10525C003840FFF7EFB938BD10B50446FFF7E2F957
:10526C00031FDBB2012B08D92046FFF78DFF20B1BD
:10527C002046BDE81040FFF7E5B9002010BD0D2811
:10528C0010B504469CBF0E34A4B22046FFF77CFF39
:10529C0050B103212046FFF7B5F9032804D120466D
:1052AC00BDE81040FFF7DEB9002010BD38B504464C
:1052BC000D46FFF769FFF0B104212046FFF7A2F974
:1052CC00042805D1A9B22046BDE83840FFF7C2B981
:1052DC0002212046FFF796F902280CD12046FFF751
:1052EC00A1F9012801D0042805D129462046BDE8A2
:1052FC003840FFF7BFB938BD7047000038B50A4BCE
:10530C0003600123044643610849202000F074F82F
:10531C00202560600549A560284600F06DF8C4E9B9
:10532C000305204638BD00BF18000100F8560B00DD
:10533C0030B50E4D2978BFF35B8F11F0010487B0A7
:10534C0011D12846FFF78FF868B16846FFF7D6FFF2
:10535C006A4621460648FFF78BFB2846FFF788F87C
:10536C00044800F04BF8024807B030BD2CE703208E
:10537C0030E7032005530B007047000038B5044696
:10538C0014252A46002100F04DF8258040250749B8
:10539C0025812846258200F02FF8044960602846B4
:1053AC0000F02AF8E060204638BD00BFF8560B002C
:1053BC0030B50E4D2978BFF35B8F11F0010487B027
:1053CC0011D12846FFF74FF868B101A8FFF7D6FFB7
:1053DC0001AA21460648FFF765FD2846FFF748F865
:1053EC00044800F00BF8024807B030BD44E7032036
:1053FC0048E7032085530B00FFF731B80023014623
:10540C001A46184600F044B80A44914200F1FF33A2
:10541C0000D1704710B511F8014B03F8014F9142C0
:10542C00F9D110BD02440346934200D1704703F8F2
:10543C00011BF9E738B5104B1D68AB6B0446B3B9CB
:10544C001820FFF783FA0246A86320B90B4B0C48CF
:10545C004221FFF78BFA0B490B4BC0E900130B4BA6
:10546C0083600B23838100210120C2E90401AB6B13
:10547C0000221C615A6138BD34E60320F9560B003A
:10548C0010570B000E33CDAB34126DE6ECDE05007D
:10549C002DE9F843DFF8B8800646D8F800001F461F
:1054AC000D46914600F056F8254B1C6834B9254C36
:1054BC001C60254B13B11B68C4F8883063681F2B24
:1054CC0007DDD8F8000000F047F84FF0FF30BDE8DA
:1054DC00F8834EB3D4F8880088B91C4B23B9D8F89C
:1054EC00000000F038F8F0E74FF48470FFF72EFA64
:1054FC000028F4D00023C0E94033C4F88800636866
:10550C0040F8239001229A4000EB8301D0F800313F
:10551C001343C0F80031022EC1F8807002BFD0F8DE
:10552C0004311343C0F804316368D8F800005A1CE6
:10553C000233626044F8235000F00EF80020C6E7F6
:10554C00E8E703205CE703200000000059490B004A
:10555C0098E603207047704770470000F5430B0036
:10556C0031440B0059440B005D440B00000000005B
:10557C00427574746F6E20446F776E0000000000EB
:10558C0000000000074A0B00FD490B00F3490B001B
:10559C00E9490B00DD490B00D1490B00F94B0B001D
:1055AC00014C0B00C5490B00BD490B00B3490B0066
:1055BC00A9490B00314C0B0000000000000000005A
:1055CC00254A0B006F4A0B00474A0B00274A0B0079
:1055DC004F4A0B00574A0B005F4A0B00674A0B00FF
:1055EC000000000000000000C94A0B00B94A0B0083
:1055FC00BB4A0B006170700000000000000000004E
:10560C00B94B0B00C34B0B00CD4B0B00D74B0B0016
:10561C00E14B0B00ED4B0B00F94B0B00014C0B005D
:10562C00094C0B00154C0B001D4C0B00274C0B00B0
:10563C00314C0B0025592D256D2D25645425483AE8
:10564C00254D3A2553257A0061736374696D6500A5
:10565C000000000000000000354E0B00A14E0B00B6
:10566C00794E0B001D4D0B00494E0B00654E0B0087
:10567C00574E0B00734E0B00374E0B003B4E0B007E
:10568C000000000000000000DF4E0B00474F0B0035
:10569C001D4F0B001D4D0B000F4F0B00E14E0B006F
:1056AC00F14E0B00414F0B00014F0B00D94E0B007C
:1056BC0000000000000000003F500B0035500B00B4
:1056CC002B500B00E14F0B001F500B0013500B0025
:1056DC00F94B0B00014C0B0007500B00FF4F0B005C
:1056EC00F54F0B00EB4F0B00314C0B0000524545B6
:1056FC004E54206D616C6C6F6320737563636565CC
:10570C00646564002F746D702F6A656E6B696E73BF
:10571C002D4743432D31302D706970656C696E6572
:10572C002D34385F32303230313132345F313630F3
:10573C00363138303633392F7372632F6E65776C90
:10574C0069622F6E65776C69622F6C6962632F7367
:10575C0074646C69622F72616E642E6300000000C9
:10576C00B9450B0099490B00114A0B00A94B0B00D2
:10577C00094D0B00DD4D0B00FD4D0B00214E0B00B8
:04578C0049500B0075
:10579000040000001400000003000000474E550004
:1057A000719E0B88C3C84DB20D31586463A906665B
:0457B00048462F77C1
:1057B40054560B0038E603200000000000000000EF
:1057C40000000000000000000000000000000000D5
:1057D40000000000000000000000000000000000C5
:1057E40000000000000000000000000000000000B5
:1057F40000000000000000000000000000000000A5
:105804000000000000000000000000000000000094
:0C5814000000000000000000ECE7032092
:045820000000000084
:10582A0000000102030405060708090A0B0C0D0E05
:10583A000F101112131415161718191A1B1C1D1EF6
:04584A001F202800F3
:04584E007856341242
:04000003B000401CED
:00000001FF
