:02000002B0004C
:1040000000400B0082590B00000006000C00050266
:084010000401B41400000000DB
:04401800A4560B009F
:10401C0081F0004102E000BF83F0004330B54FEA6D
:10402C0041044FEA430594EA050F08BF90EA020FDA
:10403C001FBF54EA000C55EA020C7FEA645C7FEA6D
:10404C00655C00F0E2804FEA5454D4EB5555B8BF90
:10405C006D420CDD2C4480EA020281EA030382EA01
:10406C00000083EA010180EA020281EA0303362D93
:10407C0088BF30BD11F0004F4FEA01314FF4801C66
:10408C004CEA113102D0404261EB410113F0004F78
:10409C004FEA03334CEA133302D0524263EB43032F
:1040AC0094EA050F00F0A780A4F10104D5F1200ECD
:1040BC000DDB02FA0EFC22FA05F2801841F1000128
:1040CC0003FA0EF2801843FA05F359410EE0A5F1FC
:1040DC0020050EF1200E012A03FA0EFC28BF4CF02D
:1040EC00020C43FA05F3C01851EBE37101F00045E3
:1040FC0007D54FF0000EDCF1000C7EEB00006EEBF0
:10410C000101B1F5801F1BD3B1F5001F0CD3490879
:10411C005FEA30004FEA3C0C04F101044FEA4452D0
:10412C0012F5800F80F09A80BCF1004F08BF5FEA57
:10413C00500C50F1000041EB045141EA050130BD37
:10414C005FEA4C0C404141EB0101013C28BFB1F549
:10415C00801FE9D291F0000F04BF01460020B1FA94
:10416C0081F308BF2033A3F10B03B3F120020CDA67
:10417C000C3208DD02F1140CC2F10C0201FA0CF045
:10418C0021FA02F10CE002F11402D8BFC2F1200CAA
:10419C0001FA02F120FA0CFCDCBF41EA0C01904060
:1041AC00E41AA2BF01EB0451294330BD6FEA0404A9
:1041BC001F3C1CDA0C340EDC04F11404C4F1200294
:1041CC0020FA04F001FA02F340EA030021FA04F3A6
:1041DC0045EA030130BDC4F10C04C4F1200220FAFD
:1041EC0002F001FA04F340EA0300294630BD21FA3B
:1041FC0004F0294630BD94F0000F83F4801306BF01
:10420C0081F480110134013D4EE77FEA645C18BFF4
:10421C007FEA655C29D094EA050F08BF90EA020F8B
:10422C0005D054EA000C04BF1946104630BD91EA83
:10423C00030F1EBF0021002030BD5FEA545C05D186
:10424C004000494128BF41F0004130BD14F58004C5
:10425C003CBF01F5801130BD01F0004545F0FE4139
:10426C0041F470014FF0000030BD7FEA645C1ABF6E
:10427C00194610467FEA655C1CBF0B46024650EAA5
:10428C00013406BF52EA033591EA030F41F40021D1
:10429C0030BD00BF90F0000F04BF0021704730B557
:1042AC004FF4806404F132044FF000054FF000012C
:1042BC0050E700BF90F0000F04BF0021704730B5ED
:1042CC004FF4806404F1320410F0004548BF4042C2
:1042DC004FF000013EE700BF42004FEAE2014FEA17
:1042EC0031014FEA02701FBF12F07F4393F07F4FF2
:1042FC0081F06051704732F07F4208BF704793F0F5
:10430C007F4F04BF41F40021704730B54FF4607407
:10431C0001F0004521F000411CE700BF50EA01020A
:10432C0008BF704730B54FF000050AE050EA0102B3
:10433C0008BF704730B511F0004502D5404261EB23
:10434C0041014FF4806404F132045FEA915C3FF464
:10435C00D8AE4FF003025FEADC0C18BF03325FEA01
:10436C00DC0C18BF033202EBDC02C2F1200300FAB2
:10437C0003FC20FA02F001FA03FE40EA0E0021FAD7
:10438C0002F11444BDE600BF4FEA410212F50012DF
:10439C0015D211D56FF47873B3EB625212D94FEA80
:1043AC00C12343F0004343EA505311F0004F23FA6A
:1043BC0002F018BF404270474FF00000704750EABF
:1043CC00013005D111F0004008BF6FF0004070477C
:1043DC004FF00000704700BF034613F8012B002A72
:1043EC00FBD1181A0138704709480A49884208B5A8
:1043FC0005D0094A824202D0121A01F0A3F80748EC
:10440C00074A0021121A01F0ABF8014808BD00BFA1
:10441C00F8E50320E4580B0068E6032068E6032067
:10442C00F0E7032070B5074E074C00F019FFA41BF2
:10443C00A4080025AC4200D170BD56F8043B984747
:10444C000135F7E79C580B00C0580B0000F028B85A
:10445C0008B500F053F8BDE8084000F0B9BE00F014
:10446C0029BB00F02FBB0078B0FA80F040097047F0
:10447C00012303707047000010B50446FFF71AFFC4
:10448C00002C064B4FF0000204DBFFF7C7FDFFF7D3
:10449C007BFF10BDFFF7C0FDF9E700BF0000E03F58
:1044AC0008B50021012000F04BFF00210E2000F088
:1044BC0047FF0021084600F043FF0121042000F0D3
:1044CC003FFF0121052000F03BFF0121062000F0F9
:1044DC0037FF0121042000F044FF0121052000F0EA
:1044EC0040FF0121062000F03CFF00F0EBFDBDE891
:1044FC0008404FF4165100F0D9BD00002DE9F843E7
:10450C00774EDFF80C92326899F80030002A79D196
:10451C00EBB10E2000F051FF40F6FF73C0EB002012
:10452C0090FBF3F0FFF7A8FF6E4C014620600420CF
:10453C0000F05AFF6C4B1B784BB96C4B1B7833B1AA
:10454C006B4B21681B680C2253436A4AD1500020E4
:10455C0000F020FF01280ED167490B785BB9674C3E
:10456C000870227882F0010222703268541C022AF0
:10457C0018BF23463360002000F00CFF08B95E4BD7
:10458C001870012000F006FF0128054640F09F80BE
:10459C005B4A1478002C40F09A805A4951480B78A9
:1045AC00DFF86881584F157083F001030B70504988
:1045BC00DFF834C10B684F4A04600133032BC8F891
:1045CC0000403C600B60346069D18CF8004089F885
:1045DC0000400C600B680C214B43D418D158636815
:1045EC000160C8F800300420A3683B6000F0FCFEBA
:1045FC00D8F80010052000F0F7FE3968062000F00E
:10460C00F3FE64E0012A23D1002BA0D00E2000F091
:10461C00D4FE40F6FF73C0EB002090FBF3F0FFF7E5
:10462C002BFF3A4C01462060052000F0DDFE2E4B9E
:10463C001B78002B8BD12D4B1B78002B87D02C4B50
:10464C001A682C4B0C2101FB023322685A607EE75E
:10465C00002B3FF47CAF0E2000F0AFFE40F6FF7352
:10466C00C0EB002090FBF3F0FFF706FF264C014651
:10467C002060062000F0B8FE1B4B1B78002B7FF44B
:10468C0066AF1A4B1B78002B3FF461AF184B1A68BE
:10469C00184B0C2101FB023322689A6057E79CF8F7
:1046AC0000C0BCF1000F95D00C214B43D118D45055
:1046BC00C1E901440420294600F053FE2946052097
:1046CC0000F04FFE2946062000F04BFE346001201E
:1046DC0000F060FE08B90A4B1870BDE8F88300BF03
:1046EC00A0E60320B4E60320F8E50320A8E60320A7
:1046FC00A4E6032078E603209CE60320B0E6032022
:10470C009DE60320B1E6032074E60320ACE603200B
:10471C00F9E5032010B5074B074A9A600024C3E95A
:10472C000044032000F03AF921460120BDE8104076
:10473C0000F03CB968E603200000FFFF08B5024B0F
:10474C001B685B6C019308BD4802030008B5024B63
:10475C001B685B68019308BD1802030008B5024B87
:10476C001B685B69019308BD1802030008B5024B76
:10477C001B685B68019308BD2C02030008B5024B53
:10478C001B689B68019308BD2C02030008B5024B03
:10479C001B68DB68019308BD2C02030008B5024BB3
:1047AC001B681B69019308BD2C02030008B5024B62
:1047BC001B685B69019308BD2C02030008B5024B12
:1047CC001B689B6A019308BD2C02030008B5024BC1
:1047DC001B681B6B019308BD2C02030008B5024B30
:1047EC001B689B6F019308BD2C02030008B5024B9C
:1047FC001B681B6A019308BD2802030008B5024B15
:10480C001B685B6A019308BD2802030008B5024BC4
:10481C001B689B6A019308BD2802030008B5024B74
:10482C001B68DB6A019308BD2802030008B5024B24
:10483C001B681B6B019308BD2802030008B5024BD3
:10484C001B685B6B019308BD2802030008B5024B83
:10485C001B681B6C019308BD2802030008B5024BB2
:10486C001B685B69019308BD6402030008B5024B29
:10487C001B689B68019308BD6802030008B5024BD6
:10488C001B68DB68019308BD6802030008B5024B86
:10489C001B68DB69019308BD3002030008B5024BAD
:1048AC001B681B6A019308BD3002030008B5024B5C
:1048BC001B68DB68019308BD3C02030008B5024B82
:1048CC001B681B69019308BD3C02030008B5024B31
:1048DC001B685B69019308BD3C02030008B5024BE1
:1048EC001B689B69019308BD3C02030008B5024B91
:1048FC001B68DB69019308BD3C02030008B5024B41
:10490C001B681B6A019308BD3C02030008B5024BEF
:10491C001B689B6A019308BD3C02030008B5024B5F
:10492C001B681B6C019308BD3C02030008B5024BCD
:10493C001B681B68019308BD4C02030008B5024BB1
:10494C001B685B68019308BD4C02030008B5024B61
:10495C001B681B69019308BD4C02030008B5024B90
:10496C001B685B69019308BD4C02030008B5024B40
:10497C001B689B69019308BD4C02030008B5024BF0
:10498C001B68DB69019308BD4C02030008B5024BA0
:10499C001B681B6A019308BD4C02030008B5024B4F
:1049AC001B685B68019308BD2002030008B5024B2D
:1049BC001B68DB6A019308BD2002030008B5034B9A
:1049CC001B68D3F88830019308BD00002002030057
:1049DC0008B5034B1B68D3F89430019308BD000055
:1049EC002002030008B5024B1B68DB6B019308BD6A
:1049FC004402030008B5024B1B685B68019308BDB9
:104A0C004002030008B5024B1B689B68019308BD6C
:104A1C004002030008B5024B1B68DB68019308BD1C
:104A2C004002030008B5024B1B681B69019308BDCB
:104A3C004002030008B5024B1B685B69019308BD7B
:104A4C004002030008B5024B1B689B69019308BD2B
:104A5C004002030008B5024B1B68DB69019308BDDB
:104A6C004002030008B5024B1B681B6A019308BD8A
:104A7C004002030008B5024B1B681B6B019308BD79
:104A8C004002030008B5024B1B685B6B019308BD29
:104A9C004002030008B5024B1B681B6C019308BD58
:104AAC004002030008B5024B1B685B6C019308BD08
:104ABC004002030008B5024B1B681B68019308BD3C
:104ACC001C02030008B5024B1B685B68019308BD10
:104ADC001C02030008B5024B1B681B6C019308BD3C
:104AEC001C02030008B5024B1B685B6C019308BDEC
:104AFC001C020300024800230360FFF71FBE00BF27
:104B0C00B8E60320002240681146FFF7ABBF002235
:104B1C0040681146FFF7B6BF40680022FFF7AABFF6
:104B2C004068002281F00101FFF794BF0023406828
:104B3C001A461946FFF786BF002340681A461946E5
:104B4C00FFF778BF002240681146FFF76BBF0022C9
:104B5C0040681146FFF756BF406800220221FFF75C
:104B6C0059BF002340681A46FFF744BF024B03228B
:104B7C005A60024A1A607047BCE60320C0560B000C
:104B8C007047F8B5064615460C468F18BC4206D041
:104B9C00336814F8011B9B6830469847F6E72846A3
:104BAC00F8BD007C0022FFF721BE007C0021FFF73E
:104BBC0025BE007C0021FFF729BE007C0021FFF7F9
:104BCC002DBE007C0021FFF731BE10B51421044628
:104BDC00FFF747FC204610BD38B5044615464FF488
:104BEC007A730022C4E90123094B2174084623601F
:104BFC002946FFF72BFEBF3008D16B69DB0705D5C3
:104C0C006868FFF75FFFE868FFF75CFF204638BD78
:104C1C00FC560B00704710B518210446FFF721FC19
:104C2C00204610BDF0B5037D062B8DB00E4600F16D
:104C3C0004074FF0000412D000F1080515F8011D0F
:104C4C000A22304600F043F9AF42044419D0002C3C
:104C5C00F4D02E21304600F037F90444EEE72F2330
:104C6C006A4639460A208DF80040FFF7F7FD684682
:104C7C00FFF7B2FB33680246DB686946304698475B
:104C8C00044620460DB0F0BD10B5054B044611226C
:104C9C0040F8043B002100F063FC204610BD00BF2F
:104CAC0024570B000346074A10B543F8042B01F1B7
:104CBC00100251F8044B43F8044B9142F9D10A7895
:104CCC001A7010BD24570B0010B59DF8084044EA2B
:104CDC00032343EA024242EA016104234160037563
:104CEC0010BD000007B5064B0360CB7800938B78A2
:104CFC004A780978FFF7E8FF03B05DF804FB00BFC2
:104D0C0024570B00014B024A1A607047C4E603207B
:104D1C0030570B00002340681A46FFF76BBE406803
:104D2C0000220221FFF776BE002240681146FFF7F1
:104D3C0069BE002240681146FFF774BE002340682C
:104D4C001A461946FFF776BE002340681A461946E4
:104D5C00FFF778BE40680021FFF79CBE4068002139
:104D6C00FFF7A0BE4068002281F00101FFF772BE80
:104D7C0040680022FFF77EBE002240681146FFF714
:104D8C0081BE002240681146FFF76CBE2DE9F0434E
:104D9C0095B014460D460746FFF776FF00211C22FE
:104DAC000DA8009100F0DCFB40230C9320466B46D1
:104DBC000CAA0021FFF762FD044600284BD10246E5
:104DCC0001216868FFF72EFE0221804622466868A2
:104DDC00FFF728FE009E81462146002E3BD000297D
:104DEC0039D17368022B03D00A2B11D0F669F4E782
:104DFC00B8F1000FFAD0716906A8043107ADFFF7BE
:104E0C0071FF0FCD3C1D0FC42B6823704146EDE79D
:104E1C00B9F1000FEAD07469102201A800F0A0FBD0
:104E2C0006238DF8143001AD04F10803183418680A
:104E3C0059682A4603C20833A3421546F7D101A983
:104E4C0006A807ADFFF72EFF0FCD3C1D0FC42B6836
:104E5C0023704946CAE70098FFF708FD384615B09D
:104E6C00BDE8F083024B034A1A6000225A60704777
:104E7C00C8E603203C570B00F8B506460D468F18C4
:104E8C000024BD420CD0336815F8011B9B683046DA
:104E9C009847031E01DB1C44F3E7002C08BF1C469B
:104EAC002046F8BD13B50446084659B10191FFF7E9
:104EBC0093FA23680199DB680246204602B0BDE8EC
:104ECC001040184702B010BD03689B68184730B5F6
:104EDC008BB00023012A8DF8243098BF0A2209AC2C
:104EEC000D46B1FBF2F101FB125303F0FF03092B4A
:104EFC0094BF30333733DBB2AA4204F8013DEFD90B
:104F0C002146FFF7CFFF0BB030BD0000014B002254
:104F1C009A607047D0E6032010B50446084621700D
:104F2C00FFF7B4FC00236360204610BD054B022242
:104F3C001A60054B054A9A600020C3E90000FFF790
:104F4C002DBD00BFECE60320E0E603200000FFFFD0
:104F5C00024B1A68024B1A60704700BFFCE5032035
:104F6C00F0E6032070474174704708B5007CFFF7EA
:104F7C00CDFC20EAE07008BD08B5007CFFF79EFC74
:104F8C0020EAE07008BD08B5007CFFF7A7FC40EAFA
:104F9C00E07008BD08B5007CFFF798FC40EAE070B3
:104FAC0008BD007CFFF7A2BC37B5457C04462DB18B
:104FBC00207C03B0BDE83040FFF778BC007C019149
:104FCC00FFF7A4FC00280199F2DC284603B030BDA1
:104FDC0010B514210446FFF744FA204610BD00001A
:104FEC0010B54FF47A730446084611460022C4E902
:104FFC000123044B2360012320746374FFF78EFCA0
:10500C00204610BD94570B00417470477047704791
:10501C0008B50021007CFFF7A9FC40EAE07008BD50
:10502C0008B50121007CFFF7A1FC40EAE07008BD47
:10503C0008B5007CFFF792FC20EAE07008BD08B5CB
:10504C00007CFFF783FC20EAE07008BD13B5044632
:10505C00007C0191FFF782FC0028019901DC607C47
:10506C0020B1207CFFF78AFC20EAE07002B010BD72
:10507C00007CFFF78BBC10B514210446FFF7F1F947
:10508C00204610BD10B54FF47A7304460846002133
:10509C00C4E90113044B236001232074637411468B
:1050AC00FFF744FC204610BDC4570B00007C0022C7
:1050BC00FFF744BC10B514220446002100F050FA4E
:1050CC00204610BD10B50F4C88B003A8FFF7F2FFB7
:1050DC002178BFF35B8F11F001010FD120460191B4
:1050EC00FFF7C1F9019948B103AA0748FFF7CAFFB6
:1050FC002046FFF7BDF9054800F01EFA024808B03B
:10510C0010BD00BFF4E60320F8E6032019500B0095
:10511C00002240681146FFF785BC0022406811460A
:10512C00FFF7A0BC002240681146FFF7ABBC4068FB
:10513C000022FFF79FBC4068002281F00101FFF7BD
:10514C0089BC002340681A461946FFF77BBC002334
:10515C0040681A461946FFF76DBC0022406811469C
:10516C00FFF750BC406800220221FFF753BC00231C
:10517C0040681A46FFF73EBC024B04225A60024AB2
:10518C001A6070470CE70320F4570B00014B1860B2
:10519C00704700BF00E6032008B50B4B43B1FFF787
:1051AC0091FF03681B699847002801DDAFF300806D
:1051BC00064B43B100F09AF903681B699847002825
:1051CC0001DDAFF3008008BD00000000000000000E
:1051DC0008B5FFF7E1FFFFF7C1FA014B186008BDF6
:1051EC0028E703200548064A064908B5121A00F0BC
:1051FC00A9F9054B054A1A6008BD00BF00F403204D
:10520C0004F4032054590B0000F403201E1C279AAD
:10521C0007B5002300931A466FF07701FFF7D8FB10
:10522C0003B05DF804FB000007B543880A2B08D0D7
:10523C00502B0BD1094B1B684BB103B05DF804EB41
:10524C001847FFF7E5FF03B05DF804FB002300935C
:10525C001A466FF07701FFF7BBFBF4E718E7032062
:10526C0010B512480021FFF73DFC114B1A68114B89
:10527C009A42114B0CBF012200221A7001D0FFF789
:10528C00B1FFFFF763FA044600F072F90B4B13B150
:10529C002046AFF3008000210848FFF7A3FBBDE8D0
:1052AC00104007480021FFF789BB00BF99510B0044
:1052BC0000F403201E1C279A14E7032000000000B2
:1052CC0035520B00232813B502D9002002B010BDB3
:1052DC00A0F10B03022B1AD8174C2178BFF35B8F6C
:1052EC0011F001010BD120460191FFF7BCF8019997
:1052FC0028B11248FFF710FE2046FFF7B9F80F4B04
:10530C001878FFF7CBFA0028DFD10120DEE701285F
:10531C0009D800F0ABF80021007CFFF78FFA80F081
:10532C000100C0B2D2E709380128EED800F0DEF84F
:10533C00007CFFF7E3FAF2E71CE7032020E70320E9
:10534C00232838B504460D460AD8FF2908D0FFF7A4
:10535C00B9FF28B129462046BDE83840FFF70EBA00
:10536C0038BD38B504460D46FFF710FAFF2810D0AB
:10537C00062804D84D2323FA00F0C30709D420468D
:10538C00FFF7A0FF28B129462046BDE83840FFF7BB
:10539C0005BA38BD10B50446FFF7F8F9031FDBB2A8
:1053AC00012B08D92046FFF78DFF20B12046BDE820
:1053BC001040FFF7FBB9002010BD0D2810B50446B6
:1053CC009CBF0E34A4B22046FFF77CFF50B10321E2
:1053DC002046FFF7CBF9032804D12046BDE8104046
:1053EC00FFF7F4B9002010BD38B504460D46FFF7A1
:1053FC0069FFF0B104212046FFF7B8F9042805D164
:10540C00A9B22046BDE83840FFF7D8B902212046A2
:10541C00FFF7ACF902280CD12046FFF7B7F90128A9
:10542C0001D0042805D129462046BDE83840FFF7B5
:10543C00D5B938BD7047000038B50A4B036001235D
:10544C00044643610849202000F074F82025606070
:10545C000549A560284600F06DF8C4E9030520460F
:10546C0038BD00BF1800010028580B0030B50E4D98
:10547C002978BFF35B8F11F0010487B011D1284656
:10548C00FEF7F1FF68B16846FFF7D6FF6A46214682
:10549C000648FFF7A1FB2846FEF7EAFF044800F098
:1054AC004BF8024807B030BD2CE7032030E703204F
:1054BC0041540B007047000038B5044614252A46A9
:1054CC00002100F04DF8258040250749258128460C
:1054DC00258200F02FF804496060284600F02AF875
:1054EC00E060204638BD00BF28580B0030B50E4D8B
:1054FC002978BFF35B8F11F0010487B011D12846D6
:10550C00FEF7B1FF68B101A8FFF7D6FF01AA21464B
:10551C000648FFF765FD2846FEF7AAFF044800F091
:10552C000BF8024807B030BD44E7032048E70320DE
:10553C00C1540B00FEF793BF002301461A461846D0
:10554C0000F044B80A44914200F1FF3300D1704797
:10555C0010B511F8014B03F8014F9142F9D110BD70
:10556C0002440346934200D1704703F8011BF9E74C
:10557C0038B5104B1D68AB6B0446B3B91820FFF758
:10558C0099FA0246A86320B90B4B0C484221FFF74D
:10559C00A1FA0B490B4BC0E900130B4B83600B2397
:1055AC00838100210120C2E90401AB6B00221C6144
:1055BC005A6138BD00E6032029580B0040580B00F7
:1055CC000E33CDAB34126DE6ECDE05002DE9F8435D
:1055DC00DFF8B8800646D8F800001F460D46914605
:1055EC0000F056F8254B1C6834B9254C1C60254B33
:1055FC0013B11B68C4F8883063681F2B07DDD8F81B
:10560C00000000F047F84FF0FF30BDE8F8834EB3D0
:10561C00D4F8880088B91C4B23B9D8F8000000F0E6
:10562C0038F8F0E74FF48470FFF744FA0028F4D010
:10563C000023C0E94033C4F88800636840F8239025
:10564C0001229A4000EB8301D0F800311343C0F8DB
:10565C000031022EC1F8807002BFD0F80431134320
:10566C00C0F804316368D8F800005A1C0233626039
:10567C0044F8235000F00EF80020C6E7E8E70320BA
:10568C005CE7032000000000C14A0B0064E6032025
:10569C007047704770470000F5430B0031440B0016
:1056AC0059440B005D440B0000000000000000009A
:1056BC00000000006F4B0B00654B0B005B4B0B00AD
:1056CC00514B0B00454B0B00394B0B00614D0B0044
:1056DC00694D0B002D4B0B00254B0B001B4B0B008E
:1056EC00114B0B00994D0B00000000000000000056
:1056FC008D4B0B00D74B0B00AF4B0B008F4B0B00A4
:10570C00B74B0B00BF4B0B00C74B0B00CF4B0B0029
:10571C000000000000000000314C0B00214C0B007D
:10572C00234C0B00617070000000000000000000B2
:10573C00214D0B002B4D0B00354D0B003F4D0B003D
:10574C00494D0B00554D0B00614D0B00694D0B0085
:10575C00714D0B007D4D0B00854D0B008F4D0B00DB
:10576C00994D0B0025592D256D2D25645425483A4E
:10577C00254D3A2553257A0061736374696D650074
:10578C000000000000000000714F0B00DD4F0B000B
:10579C00B54F0B00854E0B00854F0B00A14F0B0036
:1057AC00934F0B00AF4F0B00734F0B00774F0B0059
:1057BC0000000000000000001B500B0083500B0089
:1057CC0059500B00854E0B004B500B001D500B001D
:1057DC002D500B007D500B003D500B0015500B0055
:1057EC0000000000000000007B510B0071510B0009
:1057FC0067510B001D510B005B510B004F510B00FF
:10580C00614D0B00694D0B0043510B003B510B00DC
:10581C0031510B0027510B00994D0B00005245459F
:10582C004E54206D616C6C6F63207375636365659A
:10583C00646564002F746D702F6A656E6B696E738E
:10584C002D4743432D31302D706970656C696E6541
:10585C002D34385F32303230313132345F313630C2
:10586C00363138303633392F7372632F6E65776C5F
:10587C0069622F6E65776C69622F6C6962632F7336
:10588C0074646C69622F72616E642E630000000098
:10589C0021470B00014B0B00794B0B00114D0B00FA
:1058AC00714E0B00194F0B00394F0B005D4F0B0065
:0458BC0085510B0007
:1058C000040000001400000003000000474E5500D3
:1058D00067B76327BF6E797D859F0571B6B3CB4FE0
:0458E000BE423DA5E2
:1058E4000101000084570B0004E6032000000000BF
:1058F40000000000000000000000000000000000A4
:105904000000000000000000000000000000000093
:105914000000000000000000000000000000000083
:105924000000000000000000000000000000000073
:105934000000000000000000000000000000000063
:10594400000000000000000000000000ECE703205D
:04595400000000004F
:10595E0000000102030405060708090A0B0C0D0ED0
:10596E000F101112131415161718191A1B1C1D1EC1
:04597E001F202800BE
:04598200785634120D
:04000003B000401CED
:00000001FF
